{
  "_format": "hh-sol-artifact-1",
  "contractName": "StablecoinHolder",
  "sourceName": "Contracts/Smartcontracts/Stablecoin Holder.sol",
  "abi": [
    {
      "inputs": [],
      "stateMutability": "nonpayable",
      "type": "constructor"
    },
    {
      "anonymous": false,
      "inputs": [
        {
          "indexed": true,
          "internalType": "address",
          "name": "from",
          "type": "address"
        },
        {
          "indexed": true,
          "internalType": "address",
          "name": "to",
          "type": "address"
        },
        {
          "indexed": false,
          "internalType": "uint256",
          "name": "value",
          "type": "uint256"
        }
      ],
      "name": "DSCTransfered",
      "type": "event"
    },
    {
      "inputs": [],
      "name": "i_dsc",
      "outputs": [
        {
          "internalType": "contract Stablecoin",
          "name": "",
          "type": "address"
        }
      ],
      "stateMutability": "view",
      "type": "function"
    },
    {
      "inputs": [
        {
          "internalType": "uint256",
          "name": "amountDscToMint",
          "type": "uint256"
        }
      ],
      "name": "mintDsc",
      "outputs": [],
      "stateMutability": "nonpayable",
      "type": "function"
    },
    {
      "inputs": [
        {
          "internalType": "address",
          "name": "to",
          "type": "address"
        },
        {
          "internalType": "uint256",
          "name": "amount",
          "type": "uint256"
        }
      ],
      "name": "transferDSC",
      "outputs": [],
      "stateMutability": "nonpayable",
      "type": "function"
    }
  ],
  "bytecode": "0x608060405234801561001057600080fd5b50610520806100206000396000f3fe608060405234801561001057600080fd5b50600436106100415760003560e01c8063018a1662146100465780635e338bb314610062578063c9b7c32714610080575b600080fd5b610060600480360381019061005b9190610305565b61009c565b005b61006a6101a6565b60405161007791906103a4565b60405180910390f35b61009a600480360381019061009591906103bf565b6101ca565b005b60008054906101000a900473ffffffffffffffffffffffffffffffffffffffff1673ffffffffffffffffffffffffffffffffffffffff1663beabacc83084846040518463ffffffff1660e01b81526004016100f99392919061040a565b6020604051808303816000875af1158015610118573d6000803e3d6000fd5b505050506040513d601f19601f8201168201806040525081019061013c9190610479565b508173ffffffffffffffffffffffffffffffffffffffff163073ffffffffffffffffffffffffffffffffffffffff167fa5a51e173c49f691d5942a6cf46217bf0031ac9718125e1f52586f46f90cb80e8360405161019a91906104a6565b60405180910390a35050565b60008054906101000a900473ffffffffffffffffffffffffffffffffffffffff1681565b60008054906101000a900473ffffffffffffffffffffffffffffffffffffffff1673ffffffffffffffffffffffffffffffffffffffff166340c10f1930836040518363ffffffff1660e01b81526004016102259291906104c1565b6020604051808303816000875af1158015610244573d6000803e3d6000fd5b505050506040513d601f19601f820116820180604052508101906102689190610479565b5050565b600080fd5b600073ffffffffffffffffffffffffffffffffffffffff82169050919050565b600061029c82610271565b9050919050565b6102ac81610291565b81146102b757600080fd5b50565b6000813590506102c9816102a3565b92915050565b6000819050919050565b6102e2816102cf565b81146102ed57600080fd5b50565b6000813590506102ff816102d9565b92915050565b6000806040838503121561031c5761031b61026c565b5b600061032a858286016102ba565b925050602061033b858286016102f0565b9150509250929050565b6000819050919050565b600061036a61036561036084610271565b610345565b610271565b9050919050565b600061037c8261034f565b9050919050565b600061038e82610371565b9050919050565b61039e81610383565b82525050565b60006020820190506103b96000830184610395565b92915050565b6000602082840312156103d5576103d461026c565b5b60006103e3848285016102f0565b91505092915050565b6103f581610291565b82525050565b610404816102cf565b82525050565b600060608201905061041f60008301866103ec565b61042c60208301856103ec565b61043960408301846103fb565b949350505050565b60008115159050919050565b61045681610441565b811461046157600080fd5b50565b6000815190506104738161044d565b92915050565b60006020828403121561048f5761048e61026c565b5b600061049d84828501610464565b91505092915050565b60006020820190506104bb60008301846103fb565b92915050565b60006040820190506104d660008301856103ec565b6104e360208301846103fb565b939250505056fea26469706673582212203048648eefb8a226c57d8220c36839bce2616ce0bfba2619a55fe7fdfc470ebd64736f6c63430008130033",
  "linkReferences": {},
  "deployedLinkReferences": {}
}